:020000040000FA
:1000000002005000000080FB120080B900030200D3
:100010003A900F00AA82AB839000837859790180CF
:1000200015E493A3AC82AD838A828B83F0A3AA826A
:10003000AB838C828D83D8E9D9E77582FF75831CE9
:1000400074001200627582037583007400120062EE
:1000500075D0007581BF75100075110F759F000276
:100060000008C09FF59FE473D09F22D083D082C048
:100070009FE493C0E0740193C0E0740293F59F2263
:1000800079012225640D0A002573003031323334A2
:10009000353637383941424344454600286E756C41
:1000A0006C20706F696E74657229003F3F3F0000DD
:1000B00000807F0000803F00000000F9021550B76B
:1000C00043BA510000204100E7DB2E0000A04010A1
:1000D000000000080000000A00000012006B551C20
:1000E0000012006BB41C0012006B0B1E0012006BA0
:1000F0001D1E0012006B3E1E0012006BAE1D001292
:10010000006BBF1D0012006B0E1D0012006B381D2E
:100110000012006B060C0012006B241100C008C313
:10012000E096F50808A3E096420808A3E096420886
:1001300008A3E0964208A2D265D033E5087001D347
:10014000D00822080808E630E71112097F12015B87
:10015000080808C64480C618181822181818E97923
:100160009EC608CAC608CBC608CCC6C370207996FE
:10017000CACBCC7019798ECBCC70137986CC700E2B
:10018000F9802ACA33CACB33CBCC33CC331930E70E
:10019000F2CCCBCA3350147004EA30E00DE4CA3A12
:1001A000CACB3BCBCC3CCC500209C3E913C6CC181C
:1001B0002313C6CB18C6CA18C6F9221201FB20F0B9
:1001C0001430E72B74FFFCFBFA747F8022E4FCFB05
:1001D000FA7480801AB48008BC00F2BB00EF800F74
:1001E00050EBF9E4C39AFAE49BFBE49CFCE499C667
:1001F000CC18C6CB18C6CA18C6F922E4C9C608CAA4
:10020000C608CBC6D3330308CCC63392F0C3947F61
:10021000402E94184019C9B90704CACBCC225025E6
:10022000C309CA33CACB33CBCC33CC33D9F422F491
:10023000600DC9CCC313CB13CBCA13CAD9F6CC22D9
:10024000E4FCFBFA2214FCFBFA22E6C3331846183E
:1002500046184622E7C33319471947194722181889
:1002600018E6084608700AE608C3337005E633F45A
:10027000220822191919E7094709700AE709C33347
:100280007005E733F4220922E6084608C31346083E
:10029000336002E633F422E7094709C31347093301
:1002A0006002E733F4221202886025120297602070
:1002B00012024A7003020254080808E76670101818
:1002C00019E766700A1819E76670041819E76622BC
:1002D000F422120288601C120297601712024A7000
:1002E000071202547001D322C0D01202547006D0FB
:1002F000D0B322C32233D0D0501430E0F6C3E796F7
:100300000809E7960809E7960809E796B32220E06E
:10031000D5E6970809E6970809E6970809E697B32E
:1003200022120288601B120297601612024A70079E
:10033000120254600CB322C0D01202547005D0D007
:1003400022C32233D0D0501330E0EBC3E796080924
:10035000E7960809E7960809E7962220E0E4E69781
:100360000809E6970809E6970809E69722001202AD
:1003700088604F1202976012E7548066F612025EA0
:100380007011120254703B090909F4F618F618F6B8
:1003900018F622120273701512024A08080860EA61
:1003A000E6447FF618768018E4F618F62212024A20
:1003B00060161202547012E4F608F608F608E654C5
:1003C00080F609090918181822EAC0E0EBC0E0EC31
:1003D000C0E0EDC0E0E687F0A4FBACF008E687F0F3
:1003E000A42CFCE435F0FA1809E687F0A42C4B6045
:1003F000027401CA35F0FCE433FB09E687F0D2F75A
:10040000A42CCB35F0FC1908E687F0A42BCC35F0F2
:10041000FBE433FD0819E687F0D2E7A42C4ACB357C
:10042000F0CD3400FC09E687F0D2E7A42DCC35F0FE
:10043000FDE433FA0918E687F0D2F7A42CCD35F0A5
:10044000CA3400FC08E687F0D2E7D2F7A42ACC35FC
:10045000F07A7E20E70B0ACB33CBCD33CDCC33CC37
:1004600033CB3350147004ED30E00ED2F1E4CD3DC7
:10047000CDCC3CCC3B5005DA05C2F1EB547FC63302
:1004800008E63392F0FBE73309E733C39A502D2B8C
:1004900070190C0D4C4D70151806E608C333700D1D
:1004A00020F10AA2F013F6E418800B4024E4F630A1
:1004B000F002768018F618F618F68024D33B145014
:1004C0001074FFA2F013F6187680E418F618F68080
:1004D0000FA2F013F618E63303F618ECF618EDF653
:1004E000D0E0FDD0E0FCD0E0FBD0E0FA2212029791
:1004F0006046120288603DE9687008F618F618F642
:1005000018F622748067F7120521090909748067BB
:10051000F722120288601D120297700519191980BE
:100520001A12025E701F120273C37003E66733195A
:10053000191940071818182208080874FFF618F649
:1005400018F618F6221202736017120254702192E4
:10055000F012024A7019501720F01408080809090F
:1005600009E7F61819E7F61819E7F61819E7F62259
:1005700012024A60E6E869701F0808E62480F6085F
:10058000E436F618547FB47F0CE654806007F6E436
:1005900018F618F622181822E9C6CC08C6CD08C6E7
:1005A000CE08C6CFC0E0E8C0E0EAC0E0EBC0E0099A
:1005B000E9F809E7FA09E7FBE6F918E6F8C3EC9869
:1005C000ED99EE9AEBC2E7F5F0EFC2E795F0500E29
:1005D000600CEBCFFBEACEFAE9CDF9E8CCF8EAA261
:1005E000E7D2E7FAEB33FB13F5F0EEA2E7D2E7FE32
:1005F000EF33FFC5F013A2E730E601B313C5F0C334
:10060000C0E0C0F07F00C39BFB605B9418600C40AF
:100610001AD0E023F9D0E0F80206F08AF0E9486049
:1006200003D2F0E4AFF0FAF9F8803BEB30E40D8947
:10063000F0EA6003D2F0E4AFF0F9CAF8EB30E30D72
:1006400088F0EF6002D2F0AFF0E4CAC9F8EB5407CB
:100650006014FBC3EA13FAE913F9E813F8EF135037
:1006600002D2E0FFDBEDD0E0C0E030E739C3E49F29
:10067000FFF5F0EC98FC42F0ED99FD42F0EE9AFEA9
:1006800042F0D0E0F9D0E0F8E5F0607AE923F9EE45
:1006900020E742D8028067C3EF33FFEC33FCED3331
:1006A000FDEE33FE80EAEC28FCED39FDEE3AFED09B
:1006B000E023F9D0E0F84002801BC3EE13FEED13F7
:1006C000FDEC13FCEF135002D2E0FF08B800067FE8
:1006D0007F74FF802EEF3350178CF020F0026010F3
:1006E0000CBC000C0DBD00080EBE000408E860DF65
:1006F000E933E813FFEE2313FE4F4D4C8008E95415
:1007000080FFE4FEFDFCEE33EF33F47004FCFD7E6D
:1007100080D0E0FBD0E0FAD0E0F8D0E0CFC618CE31
:10072000C618CDC618CCC6F9221202887004181853
:100730001822120297700D74FFF61819F61819F6A0
:100740001819F622E7548066F612024A700F120258
:100750005470F014F608F608F608F680D112025428
:10076000700CF608F608768008E6447F80EC1202EA
:1007700076700C12026160BFE65480F6E480BB1212
:100780000261700519191980A5E869700C763F1887
:10079000768018F618F6E8F922E6CDC0E018ECC02D
:1007A000E0E633CD33CDD313F6E719FCE71919335F
:1007B000CC33C3947F400ECD9D502408E65480F680
:1007C000E418F6800FF4043D14501408E6447FF654
:1007D000187680E418F618F6D0E0FCD0E0FD22CCC4
:1007E000D313CCFD18E4C6CBC0E018E4C6CAC0E001
:1007F0000808ED08C633E613F618E433C675F003AF
:10080000C3CA97CA09CB97CB199C40047D08802E98
:10081000BD00030208D216B6FF050606081618C367
:10082000CA33CACB33CB33CA27CA09CB37CB193C1F
:10083000C37D08803E187D0820E75CC633C6CA33F6
:10084000CACB33CB33DDF1D5F0EB30E77BCA97CAA7
:1008500009CB974ACB199C406F4B7025E620E021CD
:100860008066187D08C3CA97CA09CB97CB199CD359
:10087000C633C6CA33CACB33CB3350C9DDE7D5F054
:10088000E1D3E4C636C608C636C608C636C608C6AC
:1008900036C61818188031C3CA97CA09CB97CB1926
:1008A0009CB34097C633C6CA33CACB33CB33DD348F
:1008B000D5F02EC6A2E0C640C8CA27CA09CB371950
:1008C0004A70BECB3CB480B90808E63308E6336012
:1008D0001F181818D0E0FAD0E0FBD0E0FCD0E0FD03
:1008E00022187D08CA27CA09CB37CB193CD3808090
:1008F00013F618E4B67F11F618B6FF0EF618C60404
:1009000070D20808768080CAF618F618F680C5E41A
:10091000CFC0E0E4CEC0E0E4CDC0E0E4CCC0E07500
:10092000F020C3E633F608E633F608E633F608E6C9
:1009300033F6181818EC33FCED33FDEE33FEEF33CD
:10094000FFC3EC9709ED9709EE9709EF971919196D
:10095000400FFFEC97FC09ED97FD09EE97FE191982
:1009600006D5F0BEECF709EDF709EEF709EFF71938
:100970001919D0E0FCD0E0FDD0E0FED0E0FF221855
:100980001818E4C396F608E496F608E496F608E428
:1009900096F622E0F608A3E0F608A3E0F608A3E046
:1009A000F622E6F008A3E6F008A3E6F008A3E6F0D6
:1009B00022E0FAA3E0FBA3E0FCA3E0FD22EAF0A31F
:1009C000EBF0A3ECF0A3EDF022CAC0E0E6F0A30840
:1009D000DAFAD0E0FA22CAC0E0E0A3C582CCC58230
:1009E000C583CDC583F0A3C582CCC582C583CDC5E3
:1009F00083DAE6D0E0CA22C3E498F8E499F9120A4F
:100A0000388026C3E49AFAE49BFBE920E7E9120A5E
:100A100038E498F8E499F922C3E498F8E499F912D3
:100A20000A38E498F8E499F9C3E49AFAE49BFB22C3
:100A3000EB20E7CFE920E7E0B90010BB0008E88A27
:100A4000F084F8AAF022E4FBC8FA22EB70227B10B3
:100A5000C833C8C933C9335007C39AC3DBF2800611
:100A60009A50012ADBEAC833F4C8C933F4C9FA2220
:100A700075F008E4C833C8C933C933C99AC99B5053
:100A800004C92AC93BD5F0ECFBC833F4C8E4C9FA61
:100A900022600C08C6C313C618C613C6D5E0F422DC
:100AA000700422600D18C6C333C608C633C6D5E02D
:100AB000F41822251010AF08F51040021511800817
:100AC000F51040021511D2AF22C0D0251010AF088A
:100AD000F510500205118008F51050020511D2AF33
:100AE000D0D0222510F58210AF08F5104002151164
:100AF0008008F51040021511D2AF85118322251010
:100B0000F582E43511F58322E4732510C582C0E037
:100B1000E51134FFC583C0E0E510C3958224F810C9
:100B2000AF08858311858210800885831185821026
:100B3000D2AFCEF0A3E520F0A37808E608F0A3DE5C
:100B4000FAEFF0A3E58124FAF8E608F0A3E608F04E
:100B5000A3E608F0A30808E608F0A3E608F0A3154A
:100B6000811581D0E0FED0E0F8158115811581E86E
:100B7000C0E0EEC0E022851183851082E0A3FEE094
:100B8000A3F5207808E0A3F608DFFAE0A3FFE0A3CE
:100B9000C0E0E0A3C0E0E0A3C0E0E0A3C0E0E0A3C9
:100BA000C0E010AF0885821085831180088582100F
:100BB000858311D2AFD083D0820200687402800294
:100BC0007401C0E0F404120AE3D0E01209C92274EF
:100BD000028000CCC0E0EDC0E0E510C39CCCAD11BC
:100BE00050011D10AF068C108D1180068C108D11D8
:100BF000D2AF1209D6D0E0FDD0E0FC22EAF5C1A2C6
:100C0000E950FCC2E92274F0120B0A74FD120AB317
:100C10007402120AFEE9F08A088B098C0A8D0B74A3
:100C200015120AFEE0FEA3E0FF851082851183E421
:100C3000F0A3F08E828F83A3AA82AB83900F2C78CF
:100C40000C1209937808790C1202A670188E828F04
:100C50008374691210E5746EF0A37466F0A30A0A37
:100C6000AB83021080780879081202A660118E8288
:100C70008F83746E1210E57461F0A3746E80DD9042
:100C80000F30780C1209937808790C1202D25003B5
:100C9000020D30900F34780C1209937808790C12F9
:100CA00002A66003020D847417120AFEE0700302AC
:100CB0000DC6851082851183C082C0837413120A09
:100CC000FE121B23D083D0821210BE502C851082BE
:100CD000851183C3E094FCA3E094FFA2D265D033D6
:100CE00040177402120AFEE4121BF7F97413120A79
:100CF000FEC3E098F0A3E099F07413120AFE1210FC
:100D0000DB7418120AFEE07003020DC37417120A96
:100D1000FEE4020DC5900F38780C1209937808791B
:100D20000C120729851082851183E0240A121C34D5
:100D3000900F3C780C1209937808790C1202D2407B
:100D4000D4900F40780C1209937808790C1202D2D3
:100D50004003020CA7900F40780C12099378087991
:100D60000C120729121C2B80D8900F38780C12090E
:100D7000937808790C12036D851082851183E02425
:100D8000F61210DE900F44780C1209937808790C53
:100D900012032140D4900F30780C1209937808790F
:100DA0000C1203214003020CA7900F40780C12098B
:100DB000937808790C12036D8510828511831210C7
:100DC000DB80D27401F07402120AFEE060077A0040
:100DD0007B00020ED21210CA507D8E828F83743037
:100DE000F0EAFEEBFF7413120AFEE0FCA3E0FDEC58
:100DF0004D70087418120AFEE0600B8E828F8374A7
:100E00002EF0A30EAF837A007B0080118E828F8339
:100E100074301211067413120AFE1210DBEA24FF5A
:100E20001AEB34FFFB8510828511831210B2500B30
:100E30007413120AFE121B274970D1851082851186
:100E40008374FFC39CF874FF9DF91210BE50030217
:100E50000FA07A01020DD0851082851183121B2309
:100E6000C3E498FAE499FB806985080C85090D852F
:100E70000A0E850B0F780C1201BBAC0CE50D3395F7
:100E8000E0F50EF50F780C1201437808790C120486
:100E9000ED900F40780C1209937808790C12036DCD
:100EA000EC121100EAF8EBF9E824010AE93400FB3E
:100EB000E849701E7413120AFE121B274970087449
:100EC00018120AFEE0600B8E828F83742EF0A30E40
:100ED000AF837413120AFE1210B2508D900F48782F
:100EE0000C1209937808790C1202D24003020FA069
:100EF0007C01EE24FFF8EF34FFF97415120AFEE0CE
:100F0000F508A3E0F50988828983E0642E6010E08B
:100F10002CF0643A70077430F07C0180027C00E8A9
:100F2000FAE9FBEA24FF18EB34FFF9C3E5089AE578
:100F3000099B40D2ECA2E050677402120AFEE06006
:100F400036EEF8EF800A12109DE824FF18E934FF0E
:100F5000F9C3E50898E50999501812108AE0642E43
:100F600070E4E824FEF582E934FFF583121097F966
:100F700080D7121C2B801E8E828F83A3AE82AF83FC
:100F8000EEF8EF800612108A121097F9C3E5089860
:100F9000E5099940F07415120AFE121B427431F0F3
:100FA0007417120AFEE07005801A1EAF83EE24FF4C
:100FB000F582EF34FFF583E0643060EEE0642E707C
:100FC000031EAF837402120AFEE0700302107C124B
:100FD0001102A3A9831210CA8E828F835014742D1C
:100FE000F00EE9FF851082851183121B6B1210F33E
:100FF0008006742BF00EE9FF7C007D00EE240AFED3
:10100000EF3400FFEC24010CED3400FD1210A412AB
:101010000A30EA1211001210A4120A3012110D49FE
:1010200070E2C3EC9402ED121AD440D8ECFAEDFB56
:10103000C3E49CF8E49DF9EE28F582EF39F583E0EE
:10104000C0E0C3E49AF8E49BF9EE28F8EF39F9E838
:101050002CF8E93DF9E824F5F582E934FFF583D071
:10106000E0F0EC24FF1CED34FFFDC3EC9401ED1225
:101070001AD450BCEE24F6FEEF34FFFFEEFAEFFB7D
:101080007403120AC97F08020B76E824FFFAE934D8
:10109000FFFB8A828B832212109D18EB22E088824C
:1010A0008983F022851082851183121B787A0A7B4E
:1010B0000022C3E09AA3E09BA2D265D03322C3E012
:1010C00098A3E099A2D265D033228510828511833E
:1010D000C3A3E09400A2D265D03322E024FFF0A3A2
:1010E000E034FFF022F0EAFEEBFF8E828F8322A332
:1010F000E03400F9851082851183E8F0A3E9F0223D
:1011000024308E828F83F0A3AE82AF83228510823B
:1011100085118312111722E8F0A3E9F0851082856A
:101120001183E02274F0120B0A74B0120AB3851016
:1011300082851183121BDD7418120AFEECF0A3EDF8
:10114000F0740F120AFEE4F0A380227460120AFE0B
:10115000121B137404120AFEE0F97418120AFE122C
:101160001B42120B08740F120AFE121ADCF0121B3B
:1011700056FA121C16120AFEEAF074256A6010E094
:1011800070C9740F120AFE121B13745002108212DF
:101190001B5664257019851082851183E02401088F
:1011A0001210EF7460120AFE121B13792580AB74C3
:1011B0000E120AFEE4F0740D120AFEE4F0740C1232
:1011C0000AFEE4F07405120AFEE4F0741E120AFE30
:1011D000A882A9837402120AFE80157405120AFE01
:1011E000E070077405120AFEEAF08510828511830B
:1011F000121113121B0A121B9DFA24E060DD24FD5C
:10120000601724F860DD24FE600624FD600F801165
:10121000740C120AFEE00480D0740D80F5740E8008
:10122000F1121B9D642A705B7462120AFE121BA8E5
:10123000FB8A828B83E0FCA3E0FD740A120AFEECB9
:10124000F0A3EDF0EA24020A0AEB3400FB74621208
:101250000AFE121BD5740A120AFE1210D0501F7417
:101260000A120AFE121B13C3E49AFAE49BFB740AE7
:10127000120AFE121BDD740C120AFEE004F01210BA
:10128000F4804A740A120AFEE4F0A3802D740A1254
:101290000AFE121B2775F00AA4F8AAF075F00AE9F5
:1012A000A42AF9E50828F8E439F9E824D0F8E93463
:1012B000FFF9740A120AFE121C3B121BF7F5838811
:1012C00082E0F50874D02508C3940A40C0740C125B
:1012D0000AFEE06007740E120AFEE4F0121B566468
:1012E0002E600302136F851082851183E0240108AC
:1012F000A3E03400F912110D121B47E0642A702C90
:101300007462120AFE121B5CF8A3E0F988828983DA
:10131000E0FEA3E0FFE824020808E93400F9746263
:10132000120AFE121B90121C3BF080477E007F00C9
:10133000851082851183121B6574D02508C3940A19
:101340005031EE75F00AA4FEA8F075F00AEFA4285B
:10135000FFE5082EF8E43FF9E824D0FEE934FFFF6A
:10136000851082851183E02401F81210EF80C17E80
:10137000FF7FFF7A00851082851183121B0585107F
:1013800082851183E0FBA3E0F5838B82E024B460C7
:101390000824E4600524FC70040A1210F4121B56A1
:1013A000FB121C16120AFEEBF0700302197A24BB22
:1013B000700302184024FE700302182224EF700309
:1013C00002156C24F57003021471147003021611D7
:1013D00014700302184014700302183E14700302C4
:1013E000182224FE700302161124FB6024147003DB
:1013F00002155C14700302156C24FD70030214AA1C
:1014000024FE700302156C24FD700302156C021992
:10141000867462120AFE121BCF120AFE1210FAEA3A
:10142000A2E0740F5033120AFEE0FCA3E0FD3395F6
:10143000E0FE7406120AFE121BB0ECF0A3EDF0A35E
:10144000EEF0A3F07462120AFE121BB7120AFE122B
:101450001B90E8F0A3E902116D120AFE121B23741F
:1014600006120AFE121BA8F5838A82E8F0A3E9801F
:10147000D27462120AFE121BB0E0C0E0741E120A9F
:10148000FED0E0F07462120AFE121BB7120AFE12BE
:101490001B901210FA741F120AFEA882A9837412FC
:1014A000120AFEE8F0A3E902199D7462120AFE1204
:1014B0001BCF120AFE1210FA7406120AFE121BCF7C
:1014C000120AFEE02402FAA3E03400FB7462120A5E
:1014D000FE121BD57402120AFE1210FAE849700CB3
:1014E0007402120AFE7419F0A3740FF0121AD2508B
:1014F000047E107F277408120AFEE4F0A3800874AB
:1015000008120AFE121ADCF07402120AFE121B23E1
:1015100088828983A3AA82AB837402120AFE121BFB
:10152000DD88828983E0600A7408120AFE121B2C8F
:1015300040CD7402120AFE121AF37412120AFE123D
:1015400010FA7408120AFE121B6BF97412120AFECA
:10155000E028F8A3E039F974020214A0740D120A0D
:10156000FEE06008EE4F70047E017F007462120A94
:10157000FE121BCF120AFE121C23120AFEE0647038
:1015800070387406120AFE121BC5120AFE121BFEE8
:10159000120AFEE02402121B87120AFE121B90128E
:1015A00010FA900F4C1209B1741A120AFE1209BDFA
:1015B0007405120AFEE4F00216A1EAA2E0740650D5
:1015C0001B120AFE121B421209B17414120AFE12F7
:1015D00009BD7406120AFEE024048012120AFE12EB
:1015E0001BC5120AFE121BFE120AFEE02402121B89
:1015F00087120AFE121B90121C23120AFEE0646F6F
:101600007005900F50809EE064757096900F548026
:10161000947462120AFE121BCF120AFE1210FAEA2A
:10162000A2E074065016120AFE121B427808120934
:10163000937406120AFEE02404F8801B120AFE12BC
:101640001B65A3E0F5093395E0F50AF50B74061266
:101650000AFEE024020808121B88120AFE121C0B64
:10166000120AFE78081209A2900F34780812011DA0
:1016700040217405120AFE742DF07414120AFE78CB
:101680000812099378081209827414120AFE780865
:101690001209A2900F541209B1741A120AFE12090B
:1016A000BD744F120AFEA882A9837402120AFE12A8
:1016B00010FA7412120AFE121C0E120AFE78081298
:1016C0000993E5084509450A450B60097411120A9A
:1016D000FE740180067411120AFEE4F0EE4F7008E9
:1016E000E0A2E040030217957402120AFE121B3CAE
:1016F000120AFE121C0E120AFE780C120993741ABA
:10170000120AFE7808120993780C790812090F74EE
:10171000082508F582740F3509F583E0C0E07402EE
:10172000120AFE121B42D0E0F07414120AFE780C6A
:10173000120993741A120AFE7808120993780C7928
:101740000812090F7414120AFE780C1209A27414FC
:10175000120AFE7808120993E5084509450A450B67
:101760007086121AD2502E740E120AFEE060267491
:1017700005120AFEE06004D2F08002C2F0740A1280
:101780000AFE121AE5800E7402120AFE121BEF12F4
:101790000AFE121B4F7402120AFE121AF3744F1241
:1017A0000AFEC082C0837402120AFE121B13D08389
:1017B000D082E582C39AFAE5839BFBC3EA9EEB12D3
:1017C0001B3540C3740D120AFEE0700302199E74AB
:1017D00011120AFEE0A2E0400302199E7404120AEC
:1017E000FEE064786005E06458701E12109DE824E5
:1017F000FF18E934FFF97402120AFE121BEF120AF5
:10180000FE121B42743002199DE0646F60030219DE
:101810009E7402120AFE121BA36430700302199E0A
:1018200080D47408120AFE7401F0A3E4F074041268
:101830000AFEE024FEF0EE4F700F7E018012E4F00D
:101840007408120AFEE4F0A3F0121AD250047E06C5
:101850007F007462120AFE121BCF120AFE1210FAE7
:101860007406120AFE121B42780C120993740612B7
:101870000AFEE02404121B87120AFE121C0B120A35
:10188000FE780C1209A2900F347808120993780C94
:10189000790812032150227405120AFE742DF07487
:1018A00014120AFE7808120993E50BB2E7F50B74DF
:1018B00014120AFE78081209A2740A120AFE121BF8
:1018C00023741E120AFEE58228F8E58339F97402B2
:1018D000120AFE1210FA740D120AFEE0F5087808DA
:1018E000120BC07409120AFEE0F5087808120BC04A
:1018F0007404120AFE120BCF8E088F097808120B9F
:10190000BC740A120AFEE0F9741A120AFE1209B136
:101910001201117406120AC97412120AFE121BDD9A
:10192000740E120AFEE060767405120AFEE060048E
:10193000D2F08002C2F0740A120AFE121AE5741282
:10194000120AFEC082C0837402120AFE121B23D048
:1019500083D082E0C398F8A3E099F9C3E89EE91226
:101960001B35503A7402120AFE121B3C120AFE1278
:101970001BEF120AFE121B4F80C485108285118353
:10198000121AFC1210F37402120AFE7428F0A374E7
:101990000FF07412120AFE742BF0A3740FF074127D
:1019A000120AFEC082C0837402120AFE121B23D0E8
:1019B00083D082E0C398FEA3E099FF740A120AFE66
:1019C000121B2C500A7408120AFEE4F0A380307433
:1019D00005120AFEE06004D2F08002C2F0740A121E
:1019E0000AFEE0C39EF8A3E09FF9A2F0E433FAE810
:1019F0009AF8E99400F97408120AFEE8F0A3E9F0F5
:101A0000740C120AFEE0702B80197460120AFE1228
:101A10001B19120AFE121B42120B08740F120AFE47
:101A2000121C317408120AFE121BE3120AFE121075
:101A3000D050D77405120AFEE060507460120AFE9E
:101A4000121B137405120AFEE0F97418120AFE1232
:101A50001B42120B08802C7460120AFE121B1374B6
:101A600002120AFE121B5CF97418120AFE121B42C3
:101A7000120B087402120AFE121B057402120AFEEF
:101A80001210FA740F120AFE121C31EE24FF1EEF20
:101A900034FFFFC3121AD450BE740C120AFEE07059
:101AA0000302116E7408120AFE121BE3120AFE12E0
:101AB00010D0500302116E7460120AFE121B19122C
:101AC0000AFE121B42120B08740F120AFE121C317E
:101AD00080D2C3EF9400A2D265D03322E02401F07B
:101AE000A3E0340022A2F0E433F8E098FEA3E094EF
:101AF00000FF22121AF722121AFCF922E024FFF842
:101B0000A3E034FF22E0121B0A222401F8A3E034F0
:101B100000F922E0FAA3E0FB22E0FAA3E0FB79203F
:101B2000741822121B7822121B78E822C3E09EA3AD
:101B3000E0121B35229FA2D265D03322121AF7740D
:101B40000222121B4622E0F8A3E0F58388822212CB
:101B50001B467430F022851082851183121B60228F
:101B6000121B7EE022121B60F50822121B78C3E4D0
:101B700098F8E49922121B7EE0F8A3E0F922E0F83D
:101B8000A3E0F583888222F8A3E03400F97462228E
:101B9000121B9422E0FAA3E0F5838A822285108248
:101BA000851183121B94E022121B94E0FAA3E02219
:101BB000121B60121B4722121B602402F8A3E034A0
:101BC00000F9746222121B75E8FAE9FB7414221200
:101BD0001B75740622E0FCA3E0F5838C82EAF0A377
:101BE000EBF022E024FFF0A3E034FFF0740822E8D9
:101BF000F0A3E9F074022212111BF8A3E022EAF02C
:101C0000A3EBF0A3E4F0A3F0740622121B94E8F017
:101C1000A3E9F0741422851082851183E024010861
:101C2000121C49E8F0A3E9F07404228510828511A2
:101C300083E02401F0A3E03400F022121117240104
:101C4000F8121C49E8F0A3E922A3E03400F985105A
:101C5000828511832274F4120B0A74F6120AB312ED
:101C600000E18A0A8B0B850A08850B097808120B9C
:101C7000BC7C007D0F7402120AFEAA82AB831201A3
:101C80000B7402120AC9851082851183858208852A
:101C900083097808120BBC7A057B0F1200FF7402CF
:101CA000120AC97A107B271200F3740A120AC97F3C
:101CB00004020B7674F4120B0A43F30175B6B043B9
:101CC000B43043B440E5B4A2E750FAE5BA13135474
:101CD0003FF50875090085BB0A750B007406780A84
:101CE000120AA0E50A4508F508E50B4509F509744F
:101CF000027808120A91AA08AB097F04020B761237
:101D000000E77A0079001200ED1200DB80FBC08250
:101D1000C0838A828B83121DA5E9F08A828B83E0BF
:101D20002401FCA3E03400FD8A828B83ECF0A3ED58
:101D3000F0D083D08202006874F6120B0A74FC1291
:101D40000AB37402120AFEEAF0A3EBF0ECFAEDFB20
:101D5000740E120AFEA882A983851082851183E879
:101D6000F0A3E9F0851082851183858208858309B7
:101D70007808120BBC7404120AFE85820885830958
:101D80007808120BBC7C057D011201177404120A3D
:101D9000C97402120AFE121DA5E4F07404120AC9E5
:101DA0007F02020B76E0F8A3E0F58388822274F6C6
:101DB000120B0AE9FA7B00120BFC7F02020B76740D
:101DC000F6120B0A74FE120AB3740C120AFEA882F1
:101DD000A983851082851183E8F0A3E9F08510823C
:101DE0008511838582088583097808120BBCE4F588
:101DF00008F5097808120BBC7CF97D0012011774F4
:101E000004120AC97402120AC980AF53BEFBE59ED0
:101E1000A2E650FA53C6B843BE0402006843F30C6E
:101E200053F1FE53FF3F7586C075C50975C23BE986
:101E30004A42C453F3BF43FD40D286020068EAF829
:101E4000EBF98014EA24FFFAEB34FFFBEA4B70F461
:101E5000E824FFF8E934FFF9E84960067A6E7B0070
:051E600080EA020068A9
:0400000500000050A7
:00000001FF
