:020000040000FA
:1000000002006000000080FB120090B900030200B3
:100010004AE4900F00780279018002F0A3D8FCD95D
:10002000FA900F01AA82AB83900093781479018033
:1000300015E493A3AC82AD838A828B83F0A3AA825A
:10004000AB838C828D83D8E9D9E77582D77583011C
:1000500074001200727582037583007400120072BE
:1000600075D0007581BF75100075110F759F000266
:100070000008C09FF59FE473D09F22D083D082C038
:100080009FE493C0E0740193C0E0740293F59F2253
:10009000790122B4AEBFDABFD8D6C6B7E7C9C8CA9D
:1000A000B5D1E90D0A0012007BCC010012007B15CE
:1000B000020012007B27020012007B7C010012006C
:1000C0007B87010012007BB001002510C582C0E0D3
:1000D000E51134FFC583C0E0E510C3958224F81014
:1000E000AF08858311858210800885831185821071
:1000F000D2AFCEF0A3E520F0A37808E608F0A3DEA7
:10010000FAEFF0A3E58124FAF8E608F0A3E608F098
:10011000A3E608F0A30808E608F0A3E608F0A31594
:10012000811581D0E0FED0E0F8158115811581E8B8
:10013000C0E0EEC0E022851183851082E0A3FEE0DE
:10014000A3F5207808E0A3F608DFFAE0A3FFE0A318
:10015000C0E0E0A3C0E0E0A3C0E0E0A3C0E0E0A313
:10016000C0E010AF08858210858311800885821059
:10017000858311D2AFD083D08202007889C1A2E9F1
:1001800050FCC2E902007874F71200CAEAFEEBFFE5
:1001900080128E828F83E0F91200B88E828F83A343
:1001A000AE82AF838E828F83E070E77F01020136DB
:1001B000C082C083A28B50FCA8C18882758300AA2C
:1001C00082AB83C28BD083D08202007853F3FD438D
:1001D000FD02C2810200781200A61200AC7A0079FA
:1001E000001200B27A017B0F1200BEC2861200C458
:1001F000EA900F00F0900F00E064017002D281904D
:100200000F00E07002C281D286900F00E0F9120068
:10021000B8C28680D853BEFBE59EA2E650FA53C60C
:10022000B843BE0402007843F30C53F1FE7586C058
:1002300075C50975C23BE94A42C453F3BF43FD404B
:05024000D286020078E7
:040000050000006097
:00000001FF
