:020000040000FA
:1000000002005000000080FB120080B900030200D3
:100010003A900F00AA82AB83900083781479018014
:1000200015E493A3AC82AD838A828B83F0A3AA826A
:10003000AB838C828D83D8E9D9E77582CD75830136
:1000400074001200627582037583007400120062EE
:1000500075D0007581BF75100075110F759F000276
:100060000008C09FF59FE473D09F22D083D082C048
:100070009FE493C0E0740193C0E0740293F59F2263
:10008000790122B4AEBFDABFD8D6C6B7E7C9C8CAAD
:10009000B5D1E90D0A0012006BCA010012006B9A7B
:1000A000010012006BAC010012006B66010012002F
:1000B0006B7101002510C582C0E0E51134FFC583D6
:1000C000C0E0E510C3958224F810AF088583118540
:1000D00082108008858311858210D2AFCEF0A3E50F
:1000E00020F0A37808E608F0A3DEFAEFF0A3E5819C
:1000F00024FAF8E608F0A3E608F0A3E608F0A3085F
:1001000008E608F0A3E608F0A315811581D0E0FE0B
:10011000D0E0F8158115811581E8C0E0EEC0E0223D
:10012000851183851082E0A3FEE0A3F5207808E026
:10013000A3F608DFFAE0A3FFE0A3C0E0E0A3C0E07D
:10014000E0A3C0E0E0A3C0E0E0A3C0E010AF0885FA
:1001500082108583118008858210858311D2AFD0EB
:1001600083D08202006889C1A2E950FCC2E9020082
:100170006874F71200B4EAFEEBFF80128E828F8360
:10018000E0F91200A88E828F83A3AE82AF838E82A5
:100190008F83E070E77F0102012053BEFBE59EA242
:1001A000E650FA53C6B843BE0402006843F30C534A
:1001B000F1FE7586C075C50975C23BE94A42C45354
:1001C000F3BF43FD40D28602006802006812009629
:1001D00012009C7A0079001200A27A007B0F1200B4
:0501E000AEC28680FEA6
:0400000500000050A7
:00000001FF
